{
    "_format": "hh-sol-artifact-2",
    "contractName": "NauticalNarwhals1",
    "sourceName": "",
    "abi": [
        {
            "inputs": [],
            "stateMutability": "nonpayable",
            "type": "constructor"
        },
        {
            "anonymous": false,
            "inputs": [
                {
                    "indexed": true,
                    "internalType": "address",
                    "name": "owner",
                    "type": "address"
                },
                {
                    "indexed": true,
                    "internalType": "address",
                    "name": "approved",
                    "type": "address"
                },
                {
                    "indexed": true,
                    "internalType": "uint256",
                    "name": "tokenId",
                    "type": "uint256"
                }
            ],
            "name": "Approval",
            "type": "event"
        },
        {
            "anonymous": false,
            "inputs": [
                {
                    "indexed": true,
                    "internalType": "address",
                    "name": "owner",
                    "type": "address"
                },
                {
                    "indexed": true,
                    "internalType": "address",
                    "name": "operator",
                    "type": "address"
                },
                {
                    "indexed": false,
                    "internalType": "bool",
                    "name": "approved",
                    "type": "bool"
                }
            ],
            "name": "ApprovalForAll",
            "type": "event"
        },
        {
            "anonymous": false,
            "inputs": [
                {
                    "indexed": true,
                    "internalType": "address",
                    "name": "previousOwner",
                    "type": "address"
                },
                {
                    "indexed": true,
                    "internalType": "address",
                    "name": "newOwner",
                    "type": "address"
                }
            ],
            "name": "OwnershipTransferred",
            "type": "event"
        },
        {
            "anonymous": false,
            "inputs": [
                {
                    "indexed": true,
                    "internalType": "address",
                    "name": "from",
                    "type": "address"
                },
                {
                    "indexed": true,
                    "internalType": "address",
                    "name": "to",
                    "type": "address"
                },
                {
                    "indexed": true,
                    "internalType": "uint256",
                    "name": "tokenId",
                    "type": "uint256"
                }
            ],
            "name": "Transfer",
            "type": "event"
        },
        {
            "inputs": [],
            "name": "MAX_DOGE_SUPPLY",
            "outputs": [
                {
                    "internalType": "uint256",
                    "name": "",
                    "type": "uint256"
                }
            ],
            "stateMutability": "view",
            "type": "function"
        },
        {
            "inputs": [],
            "name": "PROVENANCE_HASH",
            "outputs": [
                {
                    "internalType": "string",
                    "name": "",
                    "type": "string"
                }
            ],
            "stateMutability": "view",
            "type": "function"
        },
        {
            "inputs": [],
            "name": "REVEAL_TIMESTAMP",
            "outputs": [
                {
                    "internalType": "uint256",
                    "name": "",
                    "type": "uint256"
                }
            ],
            "stateMutability": "view",
            "type": "function"
        },
        {
            "inputs": [
                {
                    "internalType": "address",
                    "name": "to",
                    "type": "address"
                },
                {
                    "internalType": "uint256",
                    "name": "tokenId",
                    "type": "uint256"
                }
            ],
            "name": "approve",
            "outputs": [],
            "stateMutability": "nonpayable",
            "type": "function"
        },
        {
            "inputs": [
                {
                    "internalType": "address",
                    "name": "owner",
                    "type": "address"
                }
            ],
            "name": "balanceOf",
            "outputs": [
                {
                    "internalType": "uint256",
                    "name": "",
                    "type": "uint256"
                }
            ],
            "stateMutability": "view",
            "type": "function"
        },
        {
            "inputs": [],
            "name": "baseURI",
            "outputs": [
                {
                    "internalType": "string",
                    "name": "",
                    "type": "string"
                }
            ],
            "stateMutability": "view",
            "type": "function"
        },
        {
            "inputs": [],
            "name": "emergencySetStartingIndexBlock",
            "outputs": [],
            "stateMutability": "nonpayable",
            "type": "function"
        },
        {
            "inputs": [
                {
                    "internalType": "uint256",
                    "name": "_tokenId",
                    "type": "uint256"
                }
            ],
            "name": "exists",
            "outputs": [
                {
                    "internalType": "bool",
                    "name": "",
                    "type": "bool"
                }
            ],
            "stateMutability": "view",
            "type": "function"
        },
        {
            "inputs": [
                {
                    "internalType": "uint256",
                    "name": "tokenId",
                    "type": "uint256"
                }
            ],
            "name": "getApproved",
            "outputs": [
                {
                    "internalType": "address",
                    "name": "",
                    "type": "address"
                }
            ],
            "stateMutability": "view",
            "type": "function"
        },
        {
            "inputs": [
                {
                    "internalType": "address",
                    "name": "owner",
                    "type": "address"
                },
                {
                    "internalType": "address",
                    "name": "operator",
                    "type": "address"
                }
            ],
            "name": "isApprovedForAll",
            "outputs": [
                {
                    "internalType": "bool",
                    "name": "",
                    "type": "bool"
                }
            ],
            "stateMutability": "view",
            "type": "function"
        },
        {
            "inputs": [],
            "name": "maxToMint",
            "outputs": [
                {
                    "internalType": "uint256",
                    "name": "",
                    "type": "uint256"
                }
            ],
            "stateMutability": "view",
            "type": "function"
        },
        {
            "inputs": [
                {
                    "internalType": "uint256",
                    "name": "numberOfTokens",
                    "type": "uint256"
                }
            ],
            "name": "mintDoges",
            "outputs": [],
            "stateMutability": "payable",
            "type": "function"
        },
        {
            "inputs": [],
            "name": "mintPrice",
            "outputs": [
                {
                    "internalType": "uint256",
                    "name": "",
                    "type": "uint256"
                }
            ],
            "stateMutability": "view",
            "type": "function"
        },
        {
            "inputs": [],
            "name": "name",
            "outputs": [
                {
                    "internalType": "string",
                    "name": "",
                    "type": "string"
                }
            ],
            "stateMutability": "view",
            "type": "function"
        },
        {
            "inputs": [],
            "name": "owner",
            "outputs": [
                {
                    "internalType": "address",
                    "name": "",
                    "type": "address"
                }
            ],
            "stateMutability": "view",
            "type": "function"
        },
        {
            "inputs": [
                {
                    "internalType": "uint256",
                    "name": "tokenId",
                    "type": "uint256"
                }
            ],
            "name": "ownerOf",
            "outputs": [
                {
                    "internalType": "address",
                    "name": "",
                    "type": "address"
                }
            ],
            "stateMutability": "view",
            "type": "function"
        },
        {
            "inputs": [],
            "name": "renounceOwnership",
            "outputs": [],
            "stateMutability": "nonpayable",
            "type": "function"
        },
        {
            "inputs": [
                {
                    "internalType": "address",
                    "name": "_to",
                    "type": "address"
                },
                {
                    "internalType": "uint256",
                    "name": "_numberOfTokens",
                    "type": "uint256"
                }
            ],
            "name": "reserveDoges",
            "outputs": [],
            "stateMutability": "nonpayable",
            "type": "function"
        },
        {
            "inputs": [
                {
                    "internalType": "address",
                    "name": "from",
                    "type": "address"
                },
                {
                    "internalType": "address",
                    "name": "to",
                    "type": "address"
                },
                {
                    "internalType": "uint256",
                    "name": "tokenId",
                    "type": "uint256"
                }
            ],
            "name": "safeTransferFrom",
            "outputs": [],
            "stateMutability": "nonpayable",
            "type": "function"
        },
        {
            "inputs": [
                {
                    "internalType": "address",
                    "name": "from",
                    "type": "address"
                },
                {
                    "internalType": "address",
                    "name": "to",
                    "type": "address"
                },
                {
                    "internalType": "uint256",
                    "name": "tokenId",
                    "type": "uint256"
                },
                {
                    "internalType": "bytes",
                    "name": "_data",
                    "type": "bytes"
                }
            ],
            "name": "safeTransferFrom",
            "outputs": [],
            "stateMutability": "nonpayable",
            "type": "function"
        },
        {
            "inputs": [],
            "name": "saleIsActive",
            "outputs": [
                {
                    "internalType": "bool",
                    "name": "",
                    "type": "bool"
                }
            ],
            "stateMutability": "view",
            "type": "function"
        },
        {
            "inputs": [
                {
                    "internalType": "address",
                    "name": "operator",
                    "type": "address"
                },
                {
                    "internalType": "bool",
                    "name": "approved",
                    "type": "bool"
                }
            ],
            "name": "setApprovalForAll",
            "outputs": [],
            "stateMutability": "nonpayable",
            "type": "function"
        },
        {
            "inputs": [
                {
                    "internalType": "string",
                    "name": "baseURI",
                    "type": "string"
                }
            ],
            "name": "setBaseURI",
            "outputs": [],
            "stateMutability": "nonpayable",
            "type": "function"
        },
        {
            "inputs": [
                {
                    "internalType": "uint256",
                    "name": "_maxValue",
                    "type": "uint256"
                }
            ],
            "name": "setMaxToMint",
            "outputs": [],
            "stateMutability": "nonpayable",
            "type": "function"
        },
        {
            "inputs": [
                {
                    "internalType": "uint256",
                    "name": "_price",
                    "type": "uint256"
                }
            ],
            "name": "setMintPrice",
            "outputs": [],
            "stateMutability": "nonpayable",
            "type": "function"
        },
        {
            "inputs": [
                {
                    "internalType": "string",
                    "name": "_provenanceHash",
                    "type": "string"
                }
            ],
            "name": "setProvenanceHash",
            "outputs": [],
            "stateMutability": "nonpayable",
            "type": "function"
        },
        {
            "inputs": [
                {
                    "internalType": "uint256",
                    "name": "_revealTimeStamp",
                    "type": "uint256"
                }
            ],
            "name": "setRevealTimestamp",
            "outputs": [],
            "stateMutability": "nonpayable",
            "type": "function"
        },
        {
            "inputs": [],
            "name": "setSaleState",
            "outputs": [],
            "stateMutability": "nonpayable",
            "type": "function"
        },
        {
            "inputs": [],
            "name": "setStartingIndex",
            "outputs": [],
            "stateMutability": "nonpayable",
            "type": "function"
        },
        {
            "inputs": [],
            "name": "startingIndex",
            "outputs": [
                {
                    "internalType": "uint256",
                    "name": "",
                    "type": "uint256"
                }
            ],
            "stateMutability": "view",
            "type": "function"
        },
        {
            "inputs": [],
            "name": "startingIndexBlock",
            "outputs": [
                {
                    "internalType": "uint256",
                    "name": "",
                    "type": "uint256"
                }
            ],
            "stateMutability": "view",
            "type": "function"
        },
        {
            "inputs": [
                {
                    "internalType": "bytes4",
                    "name": "interfaceId",
                    "type": "bytes4"
                }
            ],
            "name": "supportsInterface",
            "outputs": [
                {
                    "internalType": "bool",
                    "name": "",
                    "type": "bool"
                }
            ],
            "stateMutability": "view",
            "type": "function"
        },
        {
            "inputs": [],
            "name": "symbol",
            "outputs": [
                {
                    "internalType": "string",
                    "name": "",
                    "type": "string"
                }
            ],
            "stateMutability": "view",
            "type": "function"
        },
        {
            "inputs": [
                {
                    "internalType": "uint256",
                    "name": "index",
                    "type": "uint256"
                }
            ],
            "name": "tokenByIndex",
            "outputs": [
                {
                    "internalType": "uint256",
                    "name": "",
                    "type": "uint256"
                }
            ],
            "stateMutability": "view",
            "type": "function"
        },
        {
            "inputs": [
                {
                    "internalType": "address",
                    "name": "owner",
                    "type": "address"
                },
                {
                    "internalType": "uint256",
                    "name": "index",
                    "type": "uint256"
                }
            ],
            "name": "tokenOfOwnerByIndex",
            "outputs": [
                {
                    "internalType": "uint256",
                    "name": "",
                    "type": "uint256"
                }
            ],
            "stateMutability": "view",
            "type": "function"
        },
        {
            "inputs": [
                {
                    "internalType": "uint256",
                    "name": "tokenId",
                    "type": "uint256"
                }
            ],
            "name": "tokenURI",
            "outputs": [
                {
                    "internalType": "string",
                    "name": "",
                    "type": "string"
                }
            ],
            "stateMutability": "view",
            "type": "function"
        },
        {
            "inputs": [
                {
                    "internalType": "address",
                    "name": "_owner",
                    "type": "address"
                }
            ],
            "name": "tokensOfOwner",
            "outputs": [
                {
                    "internalType": "uint256[]",
                    "name": "",
                    "type": "uint256[]"
                }
            ],
            "stateMutability": "view",
            "type": "function"
        },
        {
            "inputs": [],
            "name": "totalSupply",
            "outputs": [
                {
                    "internalType": "uint256",
                    "name": "",
                    "type": "uint256"
                }
            ],
            "stateMutability": "view",
            "type": "function"
        },
        {
            "inputs": [
                {
                    "internalType": "address",
                    "name": "from",
                    "type": "address"
                },
                {
                    "internalType": "address",
                    "name": "to",
                    "type": "address"
                },
                {
                    "internalType": "uint256",
                    "name": "tokenId",
                    "type": "uint256"
                }
            ],
            "name": "transferFrom",
            "outputs": [],
            "stateMutability": "nonpayable",
            "type": "function"
        },
        {
            "inputs": [
                {
                    "internalType": "address",
                    "name": "newOwner",
                    "type": "address"
                }
            ],
            "name": "transferOwnership",
            "outputs": [],
            "stateMutability": "nonpayable",
            "type": "function"
        },
        {
            "inputs": [],
            "name": "withdraw",
            "outputs": [],
            "stateMutability": "nonpayable",
            "type": "function"
        }
    ],
    "bytecode": "0x610120604052600d805460ff191660011790553480156200001f57600080fd5b5060405162002e1938038062002e19833981016040819052620000429162000306565b60408051808201825260118152704e6175746963616c204e61727768616c7360781b602080830191825283518085019094526002845261272760f11b90840152815186938893929091620000999160009162000190565b508051620000af90600190602084019062000190565b505050620000cc620000c66200013a60201b60201c565b6200013e565b6001600160601b0319606092831b811660a052911b1660805260016008558551620000ff90600a90602089019062000190565b5084516200011590600b90602088019062000190565b5060609390931b6001600160601b0319166101005260e0525060c05250620003f79050565b3390565b600680546001600160a01b038381166001600160a01b0319831681179093556040519116919082907f8be0079c531659141344cd1fd0a4f28419497f9722a3daafe3b4186f6b6457e090600090a35050565b8280546200019e90620003a4565b90600052602060002090601f016020900481019282620001c257600085556200020d565b82601f10620001dd57805160ff19168380011785556200020d565b828001600101855582156200020d579182015b828111156200020d578251825591602001919060010190620001f0565b506200021b9291506200021f565b5090565b5b808211156200021b576000815560010162000220565b80516001600160a01b03811681146200024e57600080fd5b919050565b600082601f83011262000264578081fd5b81516001600160401b0380821115620002815762000281620003e1565b604051601f8301601f19908116603f01168101908282118183101715620002ac57620002ac620003e1565b81604052838152602092508683858801011115620002c8578485fd5b8491505b83821015620002eb5785820183015181830184015290820190620002cc565b83821115620002fc57848385830101525b9695505050505050565b60008060008060008060c087890312156200031f578182fd5b86516001600160401b038082111562000336578384fd5b620003448a838b0162000253565b975060208901519150808211156200035a578384fd5b506200036989828a0162000253565b9550506200037a6040880162000236565b93506200038a6060880162000236565b92506080870151915060a087015190509295509295509295565b600181811c90821680620003b957607f821691505b60208210811415620003db57634e487b7160e01b600052602260045260246000fd5b50919050565b634e487b7160e01b600052604160045260246000fd5b60805160601c60a05160601c60c05160e0516101005160601c6129bf6200045a60003960006106180152600061136d015260008181611284015261138e015260008181610ee70152611d050152600081816112a60152611cd601526129bf6000f3fe60806040526004361061020f5760003560e01c8063715018a611610118578063c54e73e3116100a0578063eedac3a61161006f578063eedac3a614610606578063f2c4ce1e1461063a578063f2fde38b1461065a578063f42176481461067a578063fdea8e0b1461069a57600080fd5b8063c54e73e314610568578063c87b56dd14610588578063dbdff2c1146105a8578063e985e9c5146105bd57600080fd5b806394985ddd116100e757806394985ddd146104e057806395d89b4114610500578063a22cb46514610515578063b88d4fde14610535578063b98847721461055557600080fd5b8063715018a614610478578063722503801461048d578063729ad39e146104a25780638da5cb5b146104c257600080fd5b80633ccfd60b1161019b5780635a5e5d581161016a5780635a5e5d58146103f65780635c975abb146104095780636352211e146104235780636c0360eb1461044357806370a082311461045857600080fd5b80633ccfd60b1461038157806342842e0e1461039657806351830227146103b657806355f804b3146103d657600080fd5b806316c38b3c116101e257806316c38b3c146102c557806323b872dd146102e55780632a3f300c146103055780632d380242146103255780633af32abf1461034857600080fd5b806301ffc9a71461021457806306fdde0314610249578063081812fc1461026b578063095ea7b3146102a3575b600080fd5b34801561022057600080fd5b5061023461022f36600461253e565b6106b9565b60405190151581526020015b60405180910390f35b34801561025557600080fd5b5061025e61070b565b604051610240919061270f565b34801561027757600080fd5b5061028b610286366004612617565b61079d565b6040516001600160a01b039091168152602001610240565b3480156102af57600080fd5b506102c36102be36600461239d565b610837565b005b3480156102d157600080fd5b506102c36102e03660046124e5565b61094d565b3480156102f157600080fd5b506102c36103003660046122b3565b61098a565b34801561031157600080fd5b506102c36103203660046124e5565b6109bb565b34801561033157600080fd5b5061033a610a01565b604051908152602001610240565b34801561035457600080fd5b50610234610363366004612260565b6001600160a01b03166000908152600e602052604090205460ff1690565b34801561038d57600080fd5b506102c3610a11565b3480156103a257600080fd5b506102c36103b13660046122b3565b610aaf565b3480156103c257600080fd5b50600d546102349062010000900460ff1681565b3480156103e257600080fd5b506102c36103f1366004612576565b610aca565b6102c3610404366004612617565b610b00565b34801561041557600080fd5b50600d546102349060ff1681565b34801561042f57600080fd5b5061028b61043e366004612617565b610bad565b34801561044f57600080fd5b5061025e610c24565b34801561046457600080fd5b5061033a610473366004612260565b610cb2565b34801561048457600080fd5b506102c3610d39565b34801561049957600080fd5b5061025e610d6f565b3480156104ae57600080fd5b506102c36104bd366004612436565b610d7c565b3480156104ce57600080fd5b506006546001600160a01b031661028b565b3480156104ec57600080fd5b506102c36104fb36600461251d565b610edc565b34801561050c57600080fd5b5061025e610f62565b34801561052157600080fd5b506102c3610530366004612367565b610f71565b34801561054157600080fd5b506102c36105503660046122ee565b610f7c565b6102c3610563366004612617565b610fb4565b34801561057457600080fd5b506102c36105833660046124e5565b611075565b34801561059457600080fd5b5061025e6105a3366004612617565b6110b9565b3480156105b457600080fd5b5061033a611242565b3480156105c957600080fd5b506102346105d8366004612281565b6001600160a01b03918216600090815260056020908152604080832093909416825291909152205460ff1690565b34801561061257600080fd5b5061028b7f000000000000000000000000000000000000000000000000000000000000000081565b34801561064657600080fd5b506102c36106553660046125d1565b6113b2565b34801561066657600080fd5b506102c3610675366004612260565b6113ef565b34801561068657600080fd5b506102c36106953660046123c6565b611487565b3480156106a657600080fd5b50600d5461023490610100900460ff1681565b60006001600160e01b031982166380ac58cd60e01b14806106ea57506001600160e01b03198216635b5e139f60e01b145b8061070557506301ffc9a760e01b6001600160e01b03198316145b92915050565b60606000805461071a906128b9565b80601f0160208091040260200160405190810160405280929190818152602001828054610746906128b9565b80156107935780601f1061076857610100808354040283529160200191610793565b820191906000526020600020905b81548152906001019060200180831161077657829003601f168201915b5050505050905090565b6000818152600260205260408120546001600160a01b031661081b5760405162461bcd60e51b815260206004820152602c60248201527f4552433732313a20617070726f76656420717565727920666f72206e6f6e657860448201526b34b9ba32b73a103a37b5b2b760a11b60648201526084015b60405180910390fd5b506000908152600460205260409020546001600160a01b031690565b600061084282610bad565b9050806001600160a01b0316836001600160a01b031614156108b05760405162461bcd60e51b815260206004820152602160248201527f4552433732313a20617070726f76616c20746f2063757272656e74206f776e656044820152603960f91b6064820152608401610812565b336001600160a01b03821614806108cc57506108cc81336105d8565b61093e5760405162461bcd60e51b815260206004820152603860248201527f4552433732313a20617070726f76652063616c6c6572206973206e6f74206f7760448201527f6e6572206e6f7220617070726f76656420666f7220616c6c00000000000000006064820152608401610812565b6109488383611531565b505050565b6006546001600160a01b031633146109775760405162461bcd60e51b815260040161081290612774565b600d805460ff1916911515919091179055565b610994338261159f565b6109b05760405162461bcd60e51b8152600401610812906127a9565b610948838383611692565b6006546001600160a01b031633146109e55760405162461bcd60e51b815260040161081290612774565b600d8054911515620100000262ff000019909216919091179055565b6000610a0c60095490565b905090565b6006546001600160a01b03163314610a3b5760405162461bcd60e51b815260040161081290612774565b6000610a4f6006546001600160a01b031690565b6001600160a01b03164760405160006040518083038185875af1925050503d8060008114610a99576040519150601f19603f3d011682016040523d82523d6000602084013e610a9e565b606091505b5050905080610aac57600080fd5b50565b61094883838360405180602001604052806000815250610f7c565b6006546001600160a01b03163314610af45760405162461bcd60e51b815260040161081290612774565b610948600a83836120df565b600d54610100900460ff1615610b4c5760405162461bcd60e51b815260206004820152601160248201527050726573616c652069732061637469766560781b6044820152606401610812565b610b5d81668e1bc9bf040000612857565b3414610ba45760405162461bcd60e51b8152602060048201526016602482015275125b98dbdc9c9958dd08195d1a195c88185b5bdd5b9d60521b6044820152606401610812565b610aac81611832565b6000818152600260205260408120546001600160a01b0316806107055760405162461bcd60e51b815260206004820152602960248201527f4552433732313a206f776e657220717565727920666f72206e6f6e657869737460448201526832b73a103a37b5b2b760b91b6064820152608401610812565b600a8054610c31906128b9565b80601f0160208091040260200160405190810160405280929190818152602001828054610c5d906128b9565b8015610caa5780601f10610c7f57610100808354040283529160200191610caa565b820191906000526020600020905b815481529060010190602001808311610c8d57829003601f168201915b505050505081565b60006001600160a01b038216610d1d5760405162461bcd60e51b815260206004820152602a60248201527f4552433732313a2062616c616e636520717565727920666f7220746865207a65604482015269726f206164647265737360b01b6064820152608401610812565b506001600160a01b031660009081526003602052604090205490565b6006546001600160a01b03163314610d635760405162461bcd60e51b815260040161081290612774565b610d6d6000611a1d565b565b600b8054610c31906128b9565b6006546001600160a01b03163314610da65760405162461bcd60e51b815260040161081290612774565b60026008541415610df95760405162461bcd60e51b815260206004820152601f60248201527f5265656e7472616e637947756172643a207265656e7472616e742063616c6c006044820152606401610812565b6002600855805161167d90610e0d60095490565b610e17919061282b565b1115610e655760405162461bcd60e51b815260206004820152601960248201527f4e6f742074686973206d616e7920746f6b656e73206c656674000000000000006044820152606401610812565b60015b81518111610ed357610e7e600980546001019055565b610ec182610e8d600184612876565b81518110610eab57634e487b7160e01b600052603260045260246000fd5b6020026020010151610ebc60095490565b611a6f565b80610ecb816128f4565b915050610e68565b50506001600855565b336001600160a01b037f00000000000000000000000000000000000000000000000000000000000000001614610f545760405162461bcd60e51b815260206004820152601f60248201527f4f6e6c7920565246436f6f7264696e61746f722063616e2066756c66696c6c006044820152606401610812565b610f5e8282611a89565b5050565b60606001805461071a906128b9565b610f5e338383611aa7565b610f86338361159f565b610fa25760405162461bcd60e51b8152600401610812906127a9565b610fae84848484611b76565b50505050565b600d54610100900460ff166110035760405162461bcd60e51b815260206004820152601560248201527450726573616c65206973206e6f742061637469766560581b6044820152606401610812565b336000908152600e602052604090205460ff16610b4c5760405162461bcd60e51b815260206004820152602a60248201527f536f7272792c206e6f2061636365737320756e6c65737320796f7527726520776044820152691a1a5d195b1a5cdd195960b21b6064820152608401610812565b6006546001600160a01b0316331461109f5760405162461bcd60e51b815260040161081290612774565b600d80549115156101000261ff0019909216919091179055565b6000818152600260205260409020546060906001600160a01b03166111195760405162461bcd60e51b81526020600482015260166024820152751d1bdad95b925108191bd95cc81b9bdd08195e1a5cdd60521b6044820152606401610812565b600d5462010000900460ff166111bb57600b8054611136906128b9565b80601f0160208091040260200160405190810160405280929190818152602001828054611162906128b9565b80156111af5780601f10611184576101008083540402835291602001916111af565b820191906000526020600020905b81548152906001019060200180831161119257829003601f168201915b50505050509050919050565b60006111c5611ba9565b9050600061167d600c54856111da919061282b565b6111e4919061290f565b6111ef90600161282b565b9050600082511161120f576040518060200160405280600081525061123a565b8161121982611bb8565b60405160200161122a929190612673565b6040516020818303038152906040525b949350505050565b6006546000906001600160a01b0316331461126f5760405162461bcd60e51b815260040161081290612774565b6040516370a0823160e01b81523060048201527f0000000000000000000000000000000000000000000000000000000000000000907f00000000000000000000000000000000000000000000000000000000000000006001600160a01b0316906370a082319060240160206040518083038186803b1580156112f057600080fd5b505afa158015611304573d6000803e3d6000fd5b505050506040513d601f19601f82011682018060405250810190611328919061262f565b10156113685760405162461bcd60e51b815260206004820152600f60248201526e4e6f7420656e6f756768204c494e4b60881b6044820152606401610812565b610a0c7f00000000000000000000000000000000000000000000000000000000000000007f0000000000000000000000000000000000000000000000000000000000000000611cd2565b6006546001600160a01b031633146113dc5760405162461bcd60e51b815260040161081290612774565b8051610f5e90600b906020840190612163565b6006546001600160a01b031633146114195760405162461bcd60e51b815260040161081290612774565b6001600160a01b03811661147e5760405162461bcd60e51b815260206004820152602660248201527f4f776e61626c653a206e6577206f776e657220697320746865207a65726f206160448201526564647265737360d01b6064820152608401610812565b610aac81611a1d565b6006546001600160a01b031633146114b15760405162461bcd60e51b815260040161081290612774565b60005b81811015610948576001600e60008585858181106114e257634e487b7160e01b600052603260045260246000fd5b90506020020160208101906114f79190612260565b6001600160a01b031681526020810191909152604001600020805460ff191691151591909117905580611529816128f4565b9150506114b4565b600081815260046020526040902080546001600160a01b0319166001600160a01b038416908117909155819061156682610bad565b6001600160a01b03167f8c5be1e5ebec7d5bd14f71427d1e84f3dd0314c0f7b2291e5b200ac8c7c3b92560405160405180910390a45050565b6000818152600260205260408120546001600160a01b03166116185760405162461bcd60e51b815260206004820152602c60248201527f4552433732313a206f70657261746f7220717565727920666f72206e6f6e657860448201526b34b9ba32b73a103a37b5b2b760a11b6064820152608401610812565b600061162383610bad565b9050806001600160a01b0316846001600160a01b0316148061165e5750836001600160a01b03166116538461079d565b6001600160a01b0316145b8061123a57506001600160a01b0380821660009081526005602090815260408083209388168352929052205460ff1661123a565b826001600160a01b03166116a582610bad565b6001600160a01b03161461170d5760405162461bcd60e51b815260206004820152602960248201527f4552433732313a207472616e73666572206f6620746f6b656e2074686174206960448201526839903737ba1037bbb760b91b6064820152608401610812565b6001600160a01b03821661176f5760405162461bcd60e51b8152602060048201526024808201527f4552433732313a207472616e7366657220746f20746865207a65726f206164646044820152637265737360e01b6064820152608401610812565b61177a600082611531565b6001600160a01b03831660009081526003602052604081208054600192906117a3908490612876565b90915550506001600160a01b03821660009081526003602052604081208054600192906117d190849061282b565b909155505060008181526002602052604080822080546001600160a01b0319166001600160a01b0386811691821790925591518493918716917fddf252ad1be2c89b69c2b068fc378daa952ba7f163c4a11628f55a4df523b3ef91a4505050565b600260085414156118855760405162461bcd60e51b815260206004820152601f60248201527f5265656e7472616e637947756172643a207265656e7472616e742063616c6c006044820152606401610812565b6002600855600d5460ff16156118dd5760405162461bcd60e51b815260206004820152601a60248201527f506c65617365207761697420756e74696c20756e7061757365640000000000006044820152606401610812565b6000811161192d5760405162461bcd60e51b815260206004820152601760248201527f4d696e74206174206c65617374206f6e6520746f6b656e0000000000000000006044820152606401610812565b600a8111156119705760405162461bcd60e51b815260206004820152600f60248201526e26b0bc1018981020b63637bbb2b21760891b6044820152606401610812565b61167d8161197d60095490565b611987919061282b565b11156119e65760405162461bcd60e51b815260206004820152602860248201527f4e6f7420656e6f75676820746f6b656e73206c65667420746f206d696e742074604482015267686174206d616e7960c01b6064820152608401610812565b60015b818111610ed3576119fe600980546001019055565b611a0b33610ebc60095490565b80611a15816128f4565b9150506119e9565b600680546001600160a01b038381166001600160a01b0319831681179093556040519116919082907f8be0079c531659141344cd1fd0a4f28419497f9722a3daafe3b4186f6b6457e090600090a35050565b610f5e828260405180602001604052806000815250611e5d565b611a9561167d8261290f565b611aa090600161282b565b600c555050565b816001600160a01b0316836001600160a01b03161415611b095760405162461bcd60e51b815260206004820152601960248201527f4552433732313a20617070726f766520746f2063616c6c6572000000000000006044820152606401610812565b6001600160a01b03838116600081815260056020908152604080832094871680845294825291829020805460ff191686151590811790915591519182527f17307eab39ab6107e8899845ad3d59bd9653f200f220920489ca2b5937696c31910160405180910390a3505050565b611b81848484611692565b611b8d84848484611e90565b610fae5760405162461bcd60e51b815260040161081290612722565b6060600a805461071a906128b9565b606081611bdc5750506040805180820190915260018152600360fc1b602082015290565b8160005b8115611c065780611bf0816128f4565b9150611bff9050600a83612843565b9150611be0565b60008167ffffffffffffffff811115611c2f57634e487b7160e01b600052604160045260246000fd5b6040519080825280601f01601f191660200182016040528015611c59576020820181803683370190505b5090505b841561123a57611c6e600183612876565b9150611c7b600a8661290f565b611c8690603061282b565b60f81b818381518110611ca957634e487b7160e01b600052603260045260246000fd5b60200101906001600160f81b031916908160001a905350611ccb600a86612843565b9450611c5d565b60007f00000000000000000000000000000000000000000000000000000000000000006001600160a01b0316634000aea07f000000000000000000000000000000000000000000000000000000000000000084866000604051602001611d42929190918252602082015260400190565b6040516020818303038152906040526040518463ffffffff1660e01b8152600401611d6f939291906126df565b602060405180830381600087803b158015611d8957600080fd5b505af1158015611d9d573d6000803e3d6000fd5b505050506040513d601f19601f82011682018060405250810190611dc19190612501565b50600083815260076020818152604080842054815180840189905280830186905230606082015260808082018390528351808303909101815260a090910190925281519183019190912093879052919052611e1d90600161282b565b60008581526007602052604090205561123a8482604080516020808201949094528082019290925280518083038201815260609092019052805191012090565b611e678383611f9d565b611e746000848484611e90565b6109485760405162461bcd60e51b815260040161081290612722565b60006001600160a01b0384163b15611f9257604051630a85bd0160e11b81526001600160a01b0385169063150b7a0290611ed49033908990889088906004016126a2565b602060405180830381600087803b158015611eee57600080fd5b505af1925050508015611f1e575060408051601f3d908101601f19168201909252611f1b9181019061255a565b60015b611f78573d808015611f4c576040519150601f19603f3d011682016040523d82523d6000602084013e611f51565b606091505b508051611f705760405162461bcd60e51b815260040161081290612722565b805181602001fd5b6001600160e01b031916630a85bd0160e11b14905061123a565b506001949350505050565b6001600160a01b038216611ff35760405162461bcd60e51b815260206004820181905260248201527f4552433732313a206d696e7420746f20746865207a65726f20616464726573736044820152606401610812565b6000818152600260205260409020546001600160a01b0316156120585760405162461bcd60e51b815260206004820152601c60248201527f4552433732313a20746f6b656e20616c7265616479206d696e746564000000006044820152606401610812565b6001600160a01b038216600090815260036020526040812080546001929061208190849061282b565b909155505060008181526002602052604080822080546001600160a01b0319166001600160a01b03861690811790915590518392907fddf252ad1be2c89b69c2b068fc378daa952ba7f163c4a11628f55a4df523b3ef908290a45050565b8280546120eb906128b9565b90600052602060002090601f01602090048101928261210d5760008555612153565b82601f106121265782800160ff19823516178555612153565b82800160010185558215612153579182015b82811115612153578235825591602001919060010190612138565b5061215f9291506121d7565b5090565b82805461216f906128b9565b90600052602060002090601f0160209004810192826121915760008555612153565b82601f106121aa57805160ff1916838001178555612153565b82800160010185558215612153579182015b828111156121535782518255916020019190600101906121bc565b5b8082111561215f57600081556001016121d8565b600067ffffffffffffffff8311156122065761220661294f565b612219601f8401601f19166020016127fa565b905082815283838301111561222d57600080fd5b828260208301376000602084830101529392505050565b80356001600160a01b038116811461225b57600080fd5b919050565b600060208284031215612271578081fd5b61227a82612244565b9392505050565b60008060408385031215612293578081fd5b61229c83612244565b91506122aa60208401612244565b90509250929050565b6000806000606084860312156122c7578081fd5b6122d084612244565b92506122de60208501612244565b9150604084013590509250925092565b60008060008060808587031215612303578081fd5b61230c85612244565b935061231a60208601612244565b925060408501359150606085013567ffffffffffffffff81111561233c578182fd5b8501601f8101871361234c578182fd5b61235b878235602084016121ec565b91505092959194509250565b60008060408385031215612379578182fd5b61238283612244565b9150602083013561239281612965565b809150509250929050565b600080604083850312156123af578182fd5b6123b883612244565b946020939093013593505050565b600080602083850312156123d8578182fd5b823567ffffffffffffffff808211156123ef578384fd5b818501915085601f830112612402578384fd5b813581811115612410578485fd5b8660208260051b8501011115612424578485fd5b60209290920196919550909350505050565b60006020808385031215612448578182fd5b823567ffffffffffffffff8082111561245f578384fd5b818501915085601f830112612472578384fd5b8135818111156124845761248461294f565b8060051b91506124958483016127fa565b8181528481019084860184860187018a10156124af578788fd5b8795505b838610156124d8576124c481612244565b8352600195909501949186019186016124b3565b5098975050505050505050565b6000602082840312156124f6578081fd5b813561227a81612965565b600060208284031215612512578081fd5b815161227a81612965565b6000806040838503121561252f578182fd5b50508035926020909101359150565b60006020828403121561254f578081fd5b813561227a81612973565b60006020828403121561256b578081fd5b815161227a81612973565b60008060208385031215612588578182fd5b823567ffffffffffffffff8082111561259f578384fd5b818501915085601f8301126125b2578384fd5b8135818111156125c0578485fd5b866020828501011115612424578485fd5b6000602082840312156125e2578081fd5b813567ffffffffffffffff8111156125f8578182fd5b8201601f81018413612608578182fd5b61123a848235602084016121ec565b600060208284031215612628578081fd5b5035919050565b600060208284031215612640578081fd5b5051919050565b6000815180845261265f81602086016020860161288d565b601f01601f19169290920160200192915050565b6000835161268581846020880161288d565b83519083019061269981836020880161288d565b01949350505050565b6001600160a01b03858116825284166020820152604081018390526080606082018190526000906126d590830184612647565b9695505050505050565b60018060a01b03841681528260208201526060604082015260006127066060830184612647565b95945050505050565b60208152600061227a6020830184612647565b60208082526032908201527f4552433732313a207472616e7366657220746f206e6f6e20455243373231526560408201527131b2b4bb32b91034b6b83632b6b2b73a32b960711b606082015260800190565b6020808252818101527f4f776e61626c653a2063616c6c6572206973206e6f7420746865206f776e6572604082015260600190565b60208082526031908201527f4552433732313a207472616e736665722063616c6c6572206973206e6f74206f6040820152701ddb995c881b9bdc88185c1c1c9bdd9959607a1b606082015260800190565b604051601f8201601f1916810167ffffffffffffffff811182821017156128235761282361294f565b604052919050565b6000821982111561283e5761283e612923565b500190565b60008261285257612852612939565b500490565b600081600019048311821515161561287157612871612923565b500290565b60008282101561288857612888612923565b500390565b60005b838110156128a8578181015183820152602001612890565b83811115610fae5750506000910152565b600181811c908216806128cd57607f821691505b602082108114156128ee57634e487b7160e01b600052602260045260246000fd5b50919050565b600060001982141561290857612908612923565b5060010190565b60008261291e5761291e612939565b500690565b634e487b7160e01b600052601160045260246000fd5b634e487b7160e01b600052601260045260246000fd5b634e487b7160e01b600052604160045260246000fd5b8015158114610aac57600080fd5b6001600160e01b031981168114610aac57600080fdfea2646970667358221220b0c3ba166e1306f4b1a4a03f706e492f9f12172794d5679edc6110c4144dfb7d64736f6c63430008040033",
    "linkReferences": {},
    "deployedLinkReferences": {}
}